{
  "contractName": "EvidenceProtection",
  "abi": [
    {
      "constant": true,
      "inputs": [
        {
          "name": "",
          "type": "address"
        }
      ],
      "name": "evidenceOwner",
      "outputs": [
        {
          "name": "description",
          "type": "string"
        },
        {
          "name": "caseNumber",
          "type": "uint256"
        },
        {
          "name": "hash",
          "type": "string"
        },
        {
          "name": "owner",
          "type": "address"
        },
        {
          "name": "timestamp",
          "type": "uint256"
        }
      ],
      "payable": false,
      "stateMutability": "view",
      "type": "function"
    },
    {
      "constant": true,
      "inputs": [
        {
          "name": "",
          "type": "address"
        }
      ],
      "name": "evidenceOwnerApproval",
      "outputs": [
        {
          "name": "",
          "type": "bool"
        }
      ],
      "payable": false,
      "stateMutability": "view",
      "type": "function"
    },
    {
      "inputs": [],
      "payable": false,
      "stateMutability": "nonpayable",
      "type": "constructor"
    },
    {
      "constant": false,
      "inputs": [],
      "name": "registerDetective",
      "outputs": [
        {
          "name": "",
          "type": "address"
        }
      ],
      "payable": false,
      "stateMutability": "nonpayable",
      "type": "function"
    },
    {
      "constant": false,
      "inputs": [],
      "name": "registerForensic",
      "outputs": [
        {
          "name": "",
          "type": "address"
        }
      ],
      "payable": false,
      "stateMutability": "nonpayable",
      "type": "function"
    },
    {
      "constant": false,
      "inputs": [
        {
          "name": "_description",
          "type": "string"
        },
        {
          "name": "_caseNumber",
          "type": "uint256"
        },
        {
          "name": "_hash",
          "type": "string"
        }
      ],
      "name": "createEvidence",
      "outputs": [],
      "payable": false,
      "stateMutability": "nonpayable",
      "type": "function"
    },
    {
      "constant": true,
      "inputs": [],
      "name": "evidenceCount",
      "outputs": [
        {
          "name": "",
          "type": "uint256"
        }
      ],
      "payable": false,
      "stateMutability": "view",
      "type": "function"
    },
    {
      "constant": true,
      "inputs": [
        {
          "name": "_idx",
          "type": "uint256"
        }
      ],
      "name": "getEvidence",
      "outputs": [
        {
          "name": "",
          "type": "string"
        },
        {
          "name": "",
          "type": "uint256"
        },
        {
          "name": "",
          "type": "string"
        },
        {
          "name": "",
          "type": "address"
        },
        {
          "name": "",
          "type": "uint256"
        }
      ],
      "payable": false,
      "stateMutability": "view",
      "type": "function"
    }
  ],
  "bytecode": "0x608060405234801561001057600080fd5b5060008054600160a060020a0319163317905561096f806100326000396000f3006080604052600436106100825763ffffffff7c010000000000000000000000000000000000000000000000000000000060003504166308b96b11811461008757806313b9bfe5146100b857806349a46064146101de5780635d2c309a1461027d578063a2ed5af0146102b2578063c956f143146102d9578063e6f9da81146102f1575b600080fd5b34801561009357600080fd5b5061009c610306565b60408051600160a060020a039092168252519081900360200190f35b3480156100c457600080fd5b506100d9600160a060020a0360043516610365565b60405180806020018681526020018060200185600160a060020a0316600160a060020a03168152602001848152602001838103835288818151815260200191508051906020019080838360005b8381101561013e578181015183820152602001610126565b50505050905090810190601f16801561016b5780820380516001836020036101000a031916815260200191505b50838103825286518152865160209182019188019080838360005b8381101561019e578181015183820152602001610186565b50505050905090810190601f1680156101cb5780820380516001836020036101000a031916815260200191505b5097505050505050505060405180910390f35b3480156101ea57600080fd5b506040805160206004803580820135601f810184900484028501840190955284845261027b94369492936024939284019190819084018382808284375050604080516020601f818a01358b0180359182018390048302840183018552818452989b8a359b909a9099940197509195509182019350915081908401838280828437509497506104c09650505050505050565b005b34801561028957600080fd5b5061029e600160a060020a036004351661063a565b604080519115158252519081900360200190f35b3480156102be57600080fd5b506102c761064f565b60408051918252519081900360200190f35b3480156102e557600080fd5b506100d9600435610655565b3480156102fd57600080fd5b5061009c610815565b600880546001810182556000919091527ff3f7a9fe364faab93b216da50a3214154f22a0a2b415b23a84c8169e8b636ee301805473ffffffffffffffffffffffffffffffffffffffff191633179055600254600160a060020a03165b90565b60056020908152600091825260409182902080548351601f600260001961010060018616150201909316929092049182018490048402810184019094528084529092918391908301828280156103fc5780601f106103d1576101008083540402835291602001916103fc565b820191906000526020600020905b8154815290600101906020018083116103df57829003601f168201915b505050505090806001015490806002018054600181600116156101000203166002900480601f0160208091040260200160405190810160405280929190818152602001828054600181600116156101000203166002900480156104a05780601f10610475576101008083540402835291602001916104a0565b820191906000526020600020905b81548152906001019060200180831161048357829003601f168201915b5050505060038301546004909301549192600160a060020a031691905085565b60006104ca610872565b50506040805160a0810182528481526020808201859052918101839052336060820181905242608083015260078054600181018083556000929092528351805193959293859360059093027fa66cc928b5edb82af9bd49922954155ab7b0942694bea4ce44661d9a8736c68801926105469284929101906108ab565b5060208281015160018301556040830151805161056992600285019201906108ab565b50606082015160038201805473ffffffffffffffffffffffffffffffffffffffff1916600160a060020a03909216919091179055608090910151600490910155503360009081526005602090815260409091208251805184936105d09284929101906108ab565b506020828101516001830155604083015180516105f392600285019201906108ab565b50606082015160038201805473ffffffffffffffffffffffffffffffffffffffff1916600160a060020a039092169190911790556080909101516004909101555050505050565b60066020526000908152604090205460ff1681565b60075490565b606060006060600080610666610872565b600780548890811061067457fe5b600091825260209182902060408051600593909302909101805460026001821615610100026000190190911604601f8101859004909402830160c090810190925260a08301848152929390928492909184918401828280156107175780601f106106ec57610100808354040283529160200191610717565b820191906000526020600020905b8154815290600101906020018083116106fa57829003601f168201915b5050505050815260200160018201548152602001600282018054600181600116156101000203166002900480601f0160208091040260200160405190810160405280929190818152602001828054600181600116156101000203166002900480156107c35780601f10610798576101008083540402835291602001916107c3565b820191906000526020600020905b8154815290600101906020018083116107a657829003601f168201915b50505091835250506003820154600160a060020a0316602080830191909152600490920154604091820152825191830151908301516060840151608090940151929b919a509850919650945092505050565b60088054600181810183556000929092527ff3f7a9fe364faab93b216da50a3214154f22a0a2b415b23a84c8169e8b636ee301805473ffffffffffffffffffffffffffffffffffffffff19163317905554600160a060020a031690565b60a0604051908101604052806060815260200160008152602001606081526020016000600160a060020a03168152602001600081525090565b828054600181600116156101000203166002900490600052602060002090601f016020900481019282601f106108ec57805160ff1916838001178555610919565b82800160010185558215610919579182015b828111156109195782518255916020019190600101906108fe565b50610925929150610929565b5090565b61036291905b80821115610925576000815560010161092f5600a165627a7a7230582092bf30d6b795503196d96616f2c9765d58ad81cf6b6bfe9fb233d0ec32b8cb5b0029",
  "source": "pragma solidity ^0.4.24;\n\ncontract EvidenceProtection\n{\n    address police;\n    address detective;\n    address forensic;\n    string description;\n    uint caseNumber;\n    struct Evidence{\n        string description;\n        uint caseNumber;\n        string hash;\n\t\taddress owner;\n\t\tuint timestamp;\n    }\n\n\tmapping(address=>Evidence)public evidenceOwner;\n    mapping(address=>bool)public evidenceOwnerApproval;\n    Evidence[] evds;\n    address [] players;\n    constructor() public\n    {\n        police=msg.sender;\n    }\n\n    function registerDetective() returns (address) {\n        players.push(msg.sender);\n        return detective;\n    }\n\n    function registerForensic() returns (address) {\n        players.push(msg.sender);\n        return forensic;\n    }\n\n    function createEvidence(string _description, uint _caseNumber, string _hash) public\n    {\n        address evidence_owner = msg.sender;\n        Evidence memory proof=Evidence({description:_description, caseNumber:_caseNumber, hash: _hash, owner:evidence_owner, timestamp:now});\n        evds.push(proof);\n        evidenceOwner[msg.sender]=proof;\n    }\n\n    function evidenceCount() view public  returns(uint) {\n        return evds.length;\n    }\n\n    function getEvidence(uint _idx) view public returns(string, uint, string, address, uint ) {\n        Evidence memory evd = evds[_idx];\n        return (\n            evd.description,\n            evd.caseNumber,\n            evd.hash,\n            evd.owner,\n            evd.timestamp\n        );\n    }\n\n}\n",
  "sourcePath": "/Users/nav13n/projects/learn/hack4justice/contracts/EvidenceProtection.sol",
  "compiler": {
    "name": "solc",
    "version": "0.4.24+commit.e67f0147.Emscripten.clang"
  },
  "schemaVersion": "2.0.0",
  "updatedAt": "2018-07-15T04:17:49.992Z"
}